:020000040800F2
:10000000000002209D1500086D0700086F0700081A
:10001000710700087307000875070008000000005A
:10002000000000000000000000000000770700084A
:1000300079070008000000007B0700087D07000822
:10004000ED150008ED150008ED150008ED15000888
:10005000ED150008ED150008ED150008ED15000878
:10006000ED150008ED150008ED150008ED15000868
:10007000ED150008ED150008ED150008ED15000858
:10008000ED150008ED150008ED1500080000000052
:10009000000000000000000000000000ED15000856
:1000A000ED150008ED150008ED150008ED15000828
:1000B000ED150008ED150008ED150008ED15000818
:1000C000ED150008ED150008ED150008ED15000808
:1000D000ED150008ED150008ED1500080000000002
:1000E000ED150008ED150008ED15000800000000F2
:1000F000000000000000000000000000ED150008F6
:1001000000000000ED150008ED150008ED150008D1
:1001100000000000000000000000000000000000DF
:10012000ED150008ED150008ED150008ED150008A7
:10013000ED150008000000000000000000000000B5
:10014000000000000000000000000000ED150008A5
:10015000ED150008ED150008ED150008ED15000877
:10016000ED150008ED15000800000000000000007B
:10017000000000000000000000000000000000007F
:1001800000000000ED150008000000000000000065
:08019000ED150008ED15000853
:1001A00010B5054C237833B9044B13B10448AFF3B1
:1001B00000800123237010BD7000002000000000AB
:1001C000E01E000808B5034B1BB103490348AFF319
:1001D000008008BD0000000074000020E01E000840
:1001E00001F0FF01102A2BDB10F0070F08D010F8E8
:1001F000013B013A8B422DD010F0070F42B3F6D1EC
:10020000F0B441EA012141EA014122F007047FF004
:1002100000070023F0E80256083C85EA010586EA5B
:10022000010685FA47F5A3FA87F586FA47F6A5FA97
:1002300087F68EB9EED1F0BC01F0FF0102F00702A3
:1002400032B110F8013B013A83EA010313B1F8D14E
:100250000020704701387047002D06BF354603382F
:10026000073815F0010F07D1013015F4807F02BF68
:10027000013015F4C03F0130F0BC0138704700BFB9
:1002800053B94AB9002908BF00281CBF4FF0FF31FD
:100290004FF0FF3000F074B9ADF1080C6DE904CEF9
:1002A00000F006F8DDF804E0DDE9022304B0704751
:1002B0002DE9F047089D04468E46002B4DD18A4219
:1002C000944669D9B2FA82F252B101FA02F3C2F14C
:1002D000200120FA01F10CFA02FC41EA030E9440DD
:1002E0004FEA1C48210CBEFBF8F61FFA8CF708FBFE
:1002F00016E341EA034306FB07F199420AD91CEBD6
:10030000030306F1FF3080F01F81994240F21C8107
:10031000023E63445B1AA4B2B3FBF8F008FB10334F
:1003200044EA034400FB07F7A7420AD91CEB040484
:1003300000F1FF3380F00A81A74240F20781644454
:10034000023840EA0640E41B00261DB1D4400023D9
:10035000C5E900433146BDE8F0878B4209D9002D3D
:1003600000F0EF800026C5E9000130463146BDE8C7
:10037000F087B3FA83F6002E4AD18B4202D3824231
:1003800000F2F980841A61EB030301209E46002DE0
:10039000E0D0C5E9004EDDE702B9FFDEB2FA82F235
:1003A000002A40F09280A1EB0C014FEA1C471FFA93
:1003B0008CFE0126200CB1FBF7F307FB131140EA7A
:1003C00001410EFB03F0884208D91CEB010103F147
:1003D000FF3802D2884200F2CB804346091AA4B209
:1003E000B1FBF7F007FB101144EA01440EFB00FEDD
:1003F000A64508D91CEB040400F1FF3102D2A64542
:1004000000F2BB800846A4EB0E0440EA03409CE7E0
:10041000C6F12007B34022FA07FC4CEA030C20FA8D
:1004200007F401FA06F31C43F9404FEA1C4900FAAD
:1004300006F3B1FBF9F8200C1FFA8CFE09FB18112A
:1004400040EA014108FB0EF0884202FA06F20BD99D
:100450001CEB010108F1FF3A80F08880884240F2ED
:100460008580A8F102086144091AA4B2B1FBF9F031
:1004700009FB101144EA014100FB0EFE8E4508D92C
:100480001CEB010100F1FF346CD28E456AD90238B1
:10049000614440EA0840A0FB0294A1EB0E01A14296
:1004A000C846A64656D353D05DB1B3EB080261EB04
:1004B0000E0101FA07F722FA06F3F1401F43C5E9DE
:1004C000007100263146BDE8F087C2F12003D84014
:1004D0000CFA02FC21FA03F3914001434FEA1C4756
:1004E0001FFA8CFEB3FBF7F007FB10360B0C43EA48
:1004F000064300FB0EF69E4204FA02F408D91CEBF8
:10050000030300F1FF382FD29E422DD902386344F5
:100510009B1B89B2B3FBF7F607FB163341EA034195
:1005200006FB0EF38B4208D91CEB010106F1FF38E4
:1005300016D28B4214D9023E6144C91A46EA0046DB
:1005400038E72E46284605E70646E3E61846F8E66D
:100550004B45A9D2B9EB020864EB0C0E0138A3E7B6
:100560004646EAE7204694E74046D1E7D0467BE797
:10057000023B614432E7304609E76444023842E70F
:10058000704700BF30B58BB00024059406940794E3
:10059000089409940194224B1A6B42F004021A63E6
:1005A0001A6B02F004020192019A02941A6B42F053
:1005B00080021A631A6B02F080020292029A03947C
:1005C0001A6B42F001021A631A6B02F001020392E5
:1005D000039A04941A6B42F002021A631B6B03F035
:1005E00002030493049B0F4D22462021284600F06D
:1005F000F4FE4FF4005305930B4B0693079405A9A3
:100600000A4800F00DFE202305930123069307946A
:10061000089405A9284600F003FE0BB030BD00BFCA
:100620000038024000000240000021100008024093
:1006300072B6FEE708B50A480A4B03604FF4E1338F
:10064000436000238360C36003610C2242618361C5
:10065000C36100F00FFA00B908BDFFF7E9FF00BF62
:100660008C0000200044004000B595B030220021ED
:1006700008A800F0E1FF0023039304930593069379
:10068000079301931E4A116C41F080511164126C62
:1006900002F080520192019A02931A4A116841F4C1
:1006A00040411160126802F440420292029A022113
:1006B000089101220B9210220C920E910F9310922E
:1006C0004FF4A873119304231293139308A800F016
:1006D00071FA80B90F23039302210491002305933B
:1006E0004FF480520692079303A800F0C3FC20B990
:1006F00015B05DF804FBFFF79BFFFFF799FF00BF04
:10070000003802400070004000B585B0002301931E
:100710000293ADF80C3000F0F3FEFFF7A5FFFFF7F2
:1007200031FFFFF787FF20210C4800F05CFE4FF4FB
:1007300000510B4800F04AFE03460A4A0A2101A86C
:1007400000F082FF64230A2201A9074800F0C1F9E2
:100750004FF4FA7000F000FFE5E700BF0000024030
:1007600000080240F81E00088C000020FEE7FEE7AB
:10077000FEE7FEE7FEE770477047704708B500F0F8
:10078000D9FE08BD00B583B0002100910C4B5A6C16
:1007900042F480425A645A6C02F480420092009AF9
:1007A00001911A6C42F080521A641B6C03F0805362
:1007B0000193019B072000F01FFE03B05DF804FBCE
:1007C0000038024000B589B00023039304930593D9
:1007D000069307930268154B9A4202D009B05DF860
:1007E00004FB0021019103F5FA331A6C42F4003244
:1007F0001A641A6C02F400320192019A02911A6B87
:1008000042F001021A631B6B03F001030293029B87
:100810000C230393022304930323069307230793D4
:1008200003A9034800F0FCFCD8E700BF00440040E7
:100830000000024038B504460268136923F44053AF
:10084000C1680B4313618368026913434269134310
:10085000C2691A430168CB6823F4164323F00C03E2
:100860001343CB600268536923F4407381690B43DF
:100870005361C369B3F5004F35D00368604A9342B2
:1008800000F0918002F58062934200F08C8000F0CD
:10089000A7FC0021031849411B1841F10001C900C0
:1008A00041EA5371DB00181863684FEA83024FEA8C
:1008B000937341F10001FFF7E3FC524DA5FB0032B9
:1008C0005109642303FB11031B013233A5FB0323EE
:1008D0005B0903F0F00202EB011203F00F03216841
:1008E00013448B608AE00368454A93422FD002F597
:1008F000806293422BD000F073FC0023021843EB7C
:100900000301121841F10001C90041EA5271D200FD
:10091000101841F10001626892185B41FFF7B0FCCA
:10092000384DA5FB00325109642303FB1103DB00A2
:100930003233A5FB03235B095A0002F4F87202EB81
:10094000011203F00703216813448B6056E000F0A6
:1009500057FC0023021843EB0301121841F1000178
:10096000C90041EA5271D200101841F100016268D9
:1009700092185B41FFF784FC224DA5FB0032510920
:10098000642303FB1103DB003233A5FB03235B0964
:100990005A0002F4F87202EB011203F00703216817
:1009A00013448B602AE000F02BFC0021031849411E
:1009B0001B1841F10001C90041EA5371DB0018180E
:1009C00063684FEA83024FEA937341F10001FFF736
:1009D00057FC0C4DA5FB00325109642303FB1103A6
:1009E0001B013233A5FB03235B0903F0F00202EB8A
:1009F000011203F00F03216813448B6038BD00BF60
:100A0000001001401F85EB512DE9F84305460F46C4
:100A100016469946DDF820802C68246837EA0403DE
:100A20000CBF4FF0010C4FF0000CB4451FD1B8F1D2
:100A3000FF3FF1D0B8F1000F05D000F087FDA0EB2B
:100A400009004045E8D92A68D36823F4D073D360FD
:100A50002A68536923F001035361202385F8393054
:100A600085F83A30002385F83830032000E0002074
:100A7000BDE8F88358B310B5044690F839300BB38D
:100A8000242384F839302268D36823F40053D360D8
:100A90002046FFF7CFFE2268136923F490431361C9
:100AA0002268536923F02A0353612268D36843F410
:100AB0000053D3600020E063202384F8393084F8A9
:100AC0003A3010BD80F83830FFF77CFED8E70120BF
:100AD00070472DE9F04383B01E4690F83930DBB201
:100AE000202B56D104460D469046002955D0002AA9
:100AF00055D090F83830012B53D0012380F838308E
:100B00004FF00009C0F83C90212380F8393000F004
:100B10001DFD0746A4F82480A4F8268084F83890A8
:100B200010E000963B46002280212046FFF76CFF34
:100B3000002838D12B882268C3F308035360236947
:100B4000CBB90235E38C9BB2BBB1E28C92B2013AD5
:100B500092B2E284A368B3F5805FE2D000963B4690
:100B6000002280212046FFF74FFFF0B915F8012B36
:100B700023685A60E6E70135E4E700963B46002229
:100B800040212046FFF740FF88B9202384F8393000
:100B900000E0022003B0BDE8F0830120FAE7012065
:100BA000F8E70220F6E70320F4E70320F2E703204A
:100BB000F0E70000002800F0DA8170B582B004464A
:100BC000036813F0010F3BD09F4B9B6803F00C03AD
:100BD000042B2CD09C4B9B6803F00C03082B21D0DA
:100BE0006368B3F5803F4FD0B3F5A02F52D0964B3A
:100BF0001A6822F480321A601A6822F480221A607D
:100C00006368002B50D000F0A1FC05468E4B1B689A
:100C100013F4003F14D100F099FC401B6428F5D96F
:100C20000320ABE1884B5B6813F4800FD8D0864B70
:100C30001B6813F4003F03D06368002B00F0998118
:100C4000236813F0020F54D07F4B9B6813F00C0FF6
:100C50003ED07D4B9B6803F00C03082B33D0E36838
:100C6000002B68D0794B01221A6000F06FFC05461A
:100C7000754B1B6813F0020F54D100F067FC401B4A
:100C80000228F5D9032079E16F4A136843F48033D1
:100C90001360B5E76C4B1A6842F480221A601A6838
:100CA00042F480321A60ABE700F050FC0546664B18
:100CB0001B6813F4003FC3D000F048FC401B6428BD
:100CC000F5D903205AE1604B5B6813F4800FC6D15D
:100CD0005D4B1B6813F0020F03D0E368012B40F05B
:100CE0004A81594A136823F0F803216943EAC10392
:100CF0001360236813F0080F42D063696BB3534B42
:100D00000122C3F8802E00F021FC05464E4B5B6F9C
:100D100013F0020F34D100F019FC401B0228F5D962
:100D200003202BE1484A136823F0F803216943EAC2
:100D3000C1031360DDE7454B00221A6000F006FC9A
:100D40000546414B1B6813F0020FD2D000F0FEFBAA
:100D5000401B0228F5D9032010E13C4B0022C3F8C8
:100D6000802E00F0F3FB0546374B5B6F13F0020F4C
:100D700006D000F0EBFB401B0228F5D90320FDE074
:100D8000236813F0040F77D02F4B1B6C13F0805F98
:100D900033D1002301932C4B1A6C42F080521A6419
:100DA0001B6C03F080530193019B0125284B1B68AA
:100DB00013F4807F23D0A368012B34D0052B38D0C7
:100DC000214B1A6F22F001021A671A6F22F00402F7
:100DD0001A67A368002B3DD000F0B8FB06461A4BFB
:100DE0001B6F13F0020F46D100F0B0FB801B41F2E5
:100DF00088339842F3D90320C0E00025D6E7144A8F
:100E0000136843F48073136000F0A0FB0646104B98
:100E10001B6813F4807FCED100F098FB801B022862
:100E2000F5D90320AAE0084A136F43F001031367C2
:100E3000CFE7054B1A6F42F004021A671A6F42F0AF
:100E400001021A67C5E700BF0038024000004742B0
:100E50000070004000F07AFB06464F4B1B6F13F00A
:100E6000020F08D000F072FB801B41F288339842D9
:100E7000F3D9032082E0E5B9A369002B7DD0464A6F
:100E8000926802F00C02082A51D0022B17D0434B73
:100E900000221A6600F05AFB04463F4B1B6813F011
:100EA000007F42D000F052FB001B0228F5D903203E
:100EB00064E0394A136C23F080531364DCE7374B4A
:100EC00000221A6600F042FB0546334B1B6813F004
:100ED000007F06D000F03AFB401B0228F5D9032022
:100EE0004CE0E369226A1343626A43EA8213A26A0E
:100EF0005208013A43EA0243E26A43EA0263264A9D
:100F00005360264B01221A6600F020FB0446224B58
:100F10001B6813F0007F06D100F018FB001B0228AD
:100F2000F5D903202AE0002028E0002026E0012B4C
:100F300026D0194B5B6803F48001E269914221D10C
:100F400003F03F02216A8A421ED1616A47F6C072ED
:100F50001A408A421AD103F44032A16A8A4217D158
:100F600003F07063E26A934214D1002006E001208E
:100F70007047012002E0012000E0002002B070BDB7
:100F80000120FBE70120F9E70120F7E70120F5E761
:100F90000120F3E70120F1E700380240000047425A
:100FA00008B5314B9B6803F00C03042B57D0082B7A
:100FB00057D12D4B5A6802F03F025B6813F4800F43
:100FC0002AD0294B5968C1F3881C4FEA4C11B1EB68
:100FD0000C006EEB0E0E4FEA8E1343EA9063810114
:100FE000091A63EB0E03DB0043EA5173C90011EBEE
:100FF0000C0C43F10003590200234FEA4C2041EA54
:10100000DC51FFF73DF9184B5B68C3F30143013333
:101010005B00B0FBF3F025E0134B5968C1F3881C6B
:101020004FEA4C11B1EB0C006EEB0E0E4FEA8E1333
:1010300043EA90638101091A63EB0E03DB0043EA84
:101040005173C90011EB0C0C43F10003990200230A
:101050004FEA8C2041EA9C51FFF712F9D3E703488D
:1010600000E0034808BD00BF0038024000127A00CB
:101070000024F400002800F09B8070B50D46044663
:101080004F4B1B6803F00F038B4208D2CBB24C4A84
:101090001370136803F00F038B4240F08B802368BA
:1010A00013F0020F17D013F0040F04D0454A9368D1
:1010B00043F4E0539360236813F0080F04D0414ACF
:1010C000936843F4604393603E4A936823F0F003CF
:1010D000A1680B439360236813F0010F32D063685B
:1010E000012B21D09A1E012A25D9364A126812F006
:1010F000020F61D033498A6822F0030213438B60E8
:1011000000F024FA06462F4B9B6803F00C0362683C
:10111000B3EB820F16D000F019FA801B41F288332E
:101120009842F0D9032042E0264A126812F4003FA8
:10113000E0D101203BE0234A126812F0007FD9D1B0
:10114000012034E01E4B1B6803F00F03AB4207D9AC
:10115000EAB21B4B1A701B6803F00F03AB422DD190
:10116000236813F0040F06D0164A936823F4E05363
:10117000E1680B439360236813F0080F07D0114A0E
:10118000936823F46043216943EAC1039360FFF746
:1011900007FF0C4B9B68C3F303130B4AD35CD84087
:1011A0000A4B18600A4B186800F084F9002070BDE3
:1011B000012070470120FAE70120F8E70120F6E757
:1011C000003C024000380240001F000808000020D8
:1011D00004000020014B1868704700BF0800002081
:1011E00008B5FFF7F7FF044B9B68C3F38223034A5C
:1011F000D35CD84008BD00BF00380240101F000873
:1012000008B5FFF7E7FF044B9B68C3F34233034A7B
:10121000D35CD84008BD00BF00380240101F000852
:1012200000230F2B00F2C880F0B583B03AE004220F
:1012300000E00022AA4032430234604D45F82420E9
:101240005F4A14686FEA0C0224EA0C054E6816F433
:10125000803F01D04CEA0405594C2560646802EADD
:1012600004054E6816F4003F01D04CEA0405544CC6
:101270006560A46802EA04054E6816F4801F01D078
:101280004CEA04054E4CA560E46822404D6815F414
:10129000001F01D04CEA0402494CE26001330F2BDD
:1012A00000F2888001229A400C6804EA020C32EABB
:1012B0000404F3D14C68651E012D03D9112C01D013
:1012C000122C12D185685E000324B44025EA04057F
:1012D000CC68B4402C438460456825EA02054C681C
:1012E000C4F300129A402A434260C5684FEA430E95
:1012F000032404FA0EF4E24325EA04058C6804FA98
:101300000EF42C43C4604C68022C01D0122C0FD177
:10131000DD08083550F8257003F00704A6000F24F7
:10132000B44027EA04070C69B4403C4340F8254028
:10133000046814404A6802F0030202FA0EF22243E3
:1013400002604A6812F0805FA8D0002201921D4A14
:10135000546C44F480445464526C02F48042019210
:10136000019A9C08A51C154A52F8256003F0030257
:1013700095000F22AA4026EA0206134A90423FF443
:1013800058AF02F5806290420ED002F58062904222
:101390000CD002F5806290420AD002F58062904241
:1013A0003FF445AF072245E7012243E7022241E728
:1013B00003223FE703B0F0BD704700BF0038014093
:1013C000003C01400038024000000240036919421D
:1013D00001D001207047002070470AB18161704739
:1013E000090481617047436931EA030301D08161D7
:1013F0007047090481617047074AD36823F4E063AA
:101400001B041B0C000200F4E060034343F0BF63C5
:1014100043F40033D360704700ED00E000B5194B92
:10142000DB68C3F30223C3F1070CBCF1040F28BF30
:101430004FF0040C03F1040EBEF1060F18D9033B64
:101440004FF0FF3E0EFA0CFC21EA0C0199400EFA17
:1014500003F322EA0303194300280BDB0901C9B295
:1014600000F1604000F5614080F800135DF804FB76
:101470000023E5E700F00F000901C9B2024B19543F
:10148000F4E700BF00ED00E014ED00E00138B0F13A
:10149000807F0BD24FF0E0235861054AF02182F89B
:1014A00023100020986107221A61704701207047BD
:1014B00000ED00E010B504460E4B18784FF47A7337
:1014C000B3FBF0F30C4A1068B0FBF3F0FFF7DEFF5C
:1014D00068B90F2C01D901200AE0002221464FF003
:1014E000FF30FFF79BFF054B1C60002000E0012050
:1014F00010BD00BF000000200800002004000020F4
:1015000008B50B4B1A6842F400721A601A6842F46C
:1015100080621A601A6842F480721A600320FFF732
:101520006BFF0020FFF7C6FFFFF72CF9002008BD76
:10153000003C0240034A1168034B1B780B441360C4
:10154000704700BFCC00002000000020014B18684D
:10155000704700BFCC00002038B50446FFF7F6FF07
:101560000546B4F1FF3F02D0044B1B781C44FFF743
:10157000EDFF401BA042FAD338BD00BF00000020A1
:10158000054BD3F8882042F47002C3F888204FF04E
:1015900000629A60704700BF00ED00E0DFF834D0D1
:1015A000002103E00C4B5B58435004310B480C4BBB
:1015B00042189A42F6D30B4A02E0002342F8043B59
:1015C000094B9A42F9D3FFF7DBFF00F011F8FFF760
:1015D0009BF87047000002205C1F000800000020FC
:1015E0007000002070000020E4000020FEE70000F2
:1015F00070B50D4D0D4C641BA4100026A64209D1F8
:101600000B4D0C4C00F06CFC641BA4100026A64291
:1016100005D170BD55F8043B98470136EEE755F803
:10162000043B98470136F2E7541F0008541F000896
:10163000541F0008581F000802440346934200D17B
:10164000704703F8011BF9E70CB430B5174B0C1EBB
:101650001D689DB008DA8B232B604FF0FF301DB062
:10166000BDE8304002B070474FF40273ADF814305B
:1016700014BF04F1FF332346049307934FF6FF731F
:1016800002900690ADF81630209A21AB02A92846A8
:10169000019300F069F8431CBCBF8B232B60002C26
:1016A000DDD0029B00221A70D9E700BF0C00002099
:1016B0002DE9F0478E689E4282460C4690461F46B2
:1016C00038D88A8912F4906F32D025680969A5EB61
:1016D0000109656905EB450505EBD57501334B44FB
:1016E0006D109D4238BF1D46530531D5294600F087
:1016F00043FB064650B90C23CAF80030A38943F0D7
:101700004003A3814FF0FF30BDE8F08721694A46CE
:1017100000F0BEFAA38923F4906343F08003A38111
:10172000266165614E44A5EB09052660A5603E462D
:10173000BE4200D93E4620683246414600F0B6FA25
:10174000A3689B1BA3602368334423600020DBE76E
:101750002A4600F06BFB06460028E1D1216950467D
:1017600000F0BEFAC7E700002DE9F04F98468B89DC
:101770001B069DB007460D4614460ED50B6963B98E
:10178000402100F0F9FA2860286120B90C233B6061
:101790004FF0FF30D1E040236B61002309932023F9
:1017A0008DF82930CDF80C803023DFF8A8818DF832
:1017B0002A304FF0010923469A4613F8012B0AB14B
:1017C000252AF9D1BAEB040B0BD05B4622462946F9
:1017D0003846FFF76DFF013000F0AA80099A5A449D
:1017E00009929AF80030002B00F0A28000234FF0FD
:1017F000FF32CDE905230AF1010A049307938DF81E
:1018000053301A935446052214F8011B5148FEF731
:10181000E7FC049AD8B9D00644BF20238DF8533092
:10182000110744BF2B238DF853309AF800302A2B30
:1018300015D0079A544600204FF00A0C214611F8A3
:10184000013B303B092B4ED9B0B1079214E0A0EB1D
:10185000080309FA03F313430493A246D2E7039B58
:10186000191D1B680391002BBBBF5B4242F00202B3
:1018700007930793B8BF049223782E2B0CD163787B
:101880002A2B35D1039B1A1D1B680392002BB8BF6E
:101890004FF0FF3302340593DFF8C8A0217803220C
:1018A0005046FEF79DFC40B14023A0EB0A0003FA2E
:1018B00000F0049B03430134049314F8011B2648F1
:1018C0008DF828100622FEF78BFC002838D0234B19
:1018D0001BBB039B073323F0070308330393099BC8
:1018E0003344099367E70CFB02320C460120A5E75D
:1018F00000230134059319464FF00A0C204610F8D6
:10190000012B303A092A03D9002BC5D00591C3E732
:101910000CFB012104460123F0E703AB00932A46A8
:101920000F4B04A93846AFF30080421C0646D6D1BF
:10193000AB895B063FF52CAF09981DB0BDE8F08F71
:1019400003AB00932A46064B04A9384600F07AF808
:10195000EBE700BF181F0008221F0008000000006E
:10196000B11600081E1F00082DE9F04716469946DB
:101970008A680B69DDF820809342B8BF1346336054
:1019800091F8432007460C460AB1013333602368BF
:10199000990642BF336802333360256815F00605A7
:1019A00006D104F1190AE36832689B1AAB4226DCBF
:1019B00094F84320131E226818BF012392062BD4EB
:1019C00004F1430249463846C04701301ED023681F
:1019D000E568326803F00603042B08BFAD1AA3685C
:1019E00022690CBF25EAE57500259342C4BF9B1A06
:1019F000ED1800261A34B5421AD1002008E0012360
:101A0000524649463846C047013003D14FF0FF30B7
:101A1000BDE8F0870135C6E7E1185A1C302081F88F
:101A20004300224494F8451082F843100233C7E77C
:101A30000123224649463846C0470130E6D00136E8
:101A4000D9E700002DE9FF470F7E0C9D782F9146C6
:101A500080460C469A4601F1430207D8622F0AD805
:101A6000002F00F0D880582F00F0A38004F1420529
:101A700084F842703AE0A7F16303152BF6D801A170
:101A800051F823F0DD1A0008F11A00086D1A000859
:101A90006D1A00086D1A00086D1A0008F11A000886
:101AA0006D1A00086D1A00086D1A00086D1A0008FA
:101AB000FD1B0008211B0008DF1B00086D1A000831
:101AC0006D1A00081F1C00086D1A0008211B000871
:101AD0006D1A00086D1A0008E71B00082B681A1D14
:101AE0001B682A6004F1420584F842300123A3E018
:101AF00020682968060601F104030AD50E682B60E8
:101B0000002E03DA2D23764284F843305E480A2300
:101B100019E00E682B6010F0400F18BF36B2EFE7E7
:101B20002B682068191D2960010601D51E6802E096
:101B30004606FBD51E8854486F2F0CBF08230A2386
:101B4000002184F843106568A560002DA2BF2168BC
:101B500021F0040121600EB9002D4DD01546B6FBD1
:101B6000F3F103FB1167C75D05F8017D3746BB4202
:101B70000E46F4D9082B0BD12368DE0708D523695C
:101B800061689942DEBF302305F8013C05F1FF355D
:101B9000521B2261CDF800A04B4603AA21464046C5
:101BA000FFF7E2FE01304CD14FF0FF3004B0BDE84A
:101BB000F087354881F845702968236851F8046B2F
:101BC00029601D0614D5DF0744BF43F020032360BE
:101BD0001EB9236823F0200323601023B0E7236895
:101BE00043F0200323607823284884F84530E3E756
:101BF000590648BFB6B2E6E71546BBE72B6826682C
:101C00006169181D286035061B6801D5196002E05E
:101C10007006FBD51980002323611546BAE72B68AF
:101C20001A1D2A601D68626800212846FEF7D8FA4E
:101C300008B1401B606063682361002384F843306F
:101C4000A8E723692A4649464046D0470130ABD031
:101C500023689B0713D4E068039B9842B8BF1846DB
:101C6000A4E70123324649464046D04701309BD085
:101C70000135E36803995B1AAB42F2DCEBE7002520
:101C800004F11906F5E700BF291F00083A1F0008F4
:101C90000A44914200F1FF3300D1704710B511F8AA
:101CA000014B03F8014F9142F9D110BD884210B5A4
:101CB00001EB020402D98442234607D8431EA14205
:101CC00008D011F8012B03F8012FF8E70244014670
:101CD0008A4200D110BD13F8014D02F8014DF7E71B
:101CE00037B5002944D051F8043C0190002BA1F1F4
:101CF0000404B8BFE41800F0CFF81E4A0198136836
:101D000033B96360146003B0BDE8304000F0CAB876
:101D1000A34208D9256861198B4201BF19685B6825
:101D200049192160EDE71A465B680BB1A342FAD965
:101D300011685518A5420BD1246821445418A342B8
:101D40001160E0D11C685B68536021441160DAE7E0
:101D500002D90C230360D6E7256861198B4204BFC2
:101D600019685B68636004BF491921605460CAE761
:101D700003B030BDD0000020F8B5CD1C25F0030520
:101D800008350C2D38BF0C25002D064601DBA94275
:101D900003D90C2333600020F8BD00F07DF8214901
:101DA0000A6814469CB9204F3B6823B92146304647
:101DB00000F062F838602946304600F05DF8431CB8
:101DC00023D10C233360304600F06CF8E3E723683E
:101DD0005B1B17D40B2B03D923601C44256004E044
:101DE0006368A2420CBF0B605360304600F05AF8A3
:101DF00004F10B00231D20F00700C21ACCD01B1ADF
:101E0000A350C9E722466468CCE7C41C24F003044D
:101E1000A042E3D0211A304600F02EF80130DDD187
:101E2000CFE700BFD0000020D4000020F8B507465F
:101E300014460E4621B9BDE8F8401146FFF79CBF95
:101E400022B9FFF74DFF25462846F8BD00F030F8CF
:101E5000A0420FD221463846FFF78EFF05460028E4
:101E6000F2D031462246FFF713FF31463846FFF7DE
:101E700037FFE9E73546E7E738B5064D0023044666
:101E800008462B6000F01EF8431C02D12B6803B1FA
:101E9000236038BDD8000020014800F011B800BF11
:101EA000DC000020014800F00CB800BFDC0000207E
:101EB00051F8043C181F002BBCBF0B58C0187047CA
:101EC00070477047044A05491368002B08BF0B464A
:101ED0001844106018467047E0000020E800002019
:101EE000F8B500BFF8BC08BC9E467047F8B500BF07
:081EF000F8BC08BC9E467047D7
:101EF80025750D0A00000000000000000000000029
:101F08000102030406070809000000000102030497
:101F1800232D302B2000686C4C00656667454647CA
:101F2800003031323334353637383941424344454D
:101F380046003031323334353637383961626364BC
:041F480065660000CA
:081F4C0064E3FF7F01000000C7
:041F5400C5010008BB
:041F5800A1010008DB
:101F5C0001000000100000000024F400100000201C
:101F6C000000000000000000000000000000000065
:101F7C000000000000000000000000000000000055
:101F8C000000000000000000000000000000000045
:101F9C000000000000000000000000000000000035
:101FAC000000000000000000000000000000000025
:101FBC000000000000000000000000000000000015
:040000050800159D3D
:00000001FF
