:020000040800F2
:100000000000022061130008890600088B06000822
:100010008D0600088F060008910600080000000009
:10002000000000000000000000000000930600082F
:1000300095060008000000009706000899060008D1
:10004000B1130008B1130008B1130008B113000880
:10005000B1130008B1130008B1130008B113000870
:10006000B1130008B1130008B1130008B113000860
:10007000B1130008B1130008B1130008B113000850
:10008000B1130008B1130008B1130008000000000C
:10009000000000000000000000000000B113000894
:1000A000B1130008B1130008B1130008B113000820
:1000B000B1130008B1130008B1130008B113000810
:1000C000B1130008B1130008B1130008B113000800
:1000D000B1130008B1130008B113000800000000BC
:1000E000B1130008B1130008B113000800000000AC
:1000F000000000000000000000000000B113000834
:1001000000000000B1130008B1130008B11300088B
:1001100000000000000000000000000000000000DF
:10012000B1130008B1130008B1130008B11300089F
:10013000B1130008000000000000000000000000F3
:10014000000000000000000000000000B1130008E3
:10015000B1130008B1130008B1130008B11300086F
:10016000B1130008B11300080000000000000000F7
:10017000000000000000000000000000000000007F
:1001800000000000B11300080000000000000000A3
:08019000B1130008B1130008CF
:1001980010B5054C237833B9044B13B10448AFF3B9
:1001A80000800123237010BD0C0000200000000017
:1001B8000C14000808B5034B1BB103490348AFF3FF
:1001C800008008BD00000000100000200C1400088A
:1001D80053B94AB9002908BF00281CBF4FF0FF31A6
:1001E8004FF0FF3000F074B9ADF1080C6DE904CEA2
:1001F80000F006F8DDF804E0DDE9022304B07047FA
:100208002DE9F047089D04468E46002B4DD18A42C1
:10021800944669D9B2FA82F252B101FA02F3C2F1F4
:10022800200120FA01F10CFA02FC41EA030E944085
:100238004FEA1C48210CBEFBF8F61FFA8CF708FBA6
:1002480016E341EA034306FB07F199420AD91CEB7E
:10025800030306F1FF3080F01F81994240F21C81B0
:10026800023E63445B1AA4B2B3FBF8F008FB1033F8
:1002780044EA034400FB07F7A7420AD91CEB04042D
:1002880000F1FF3380F00A81A74240F207816444FD
:10029800023840EA0640E41B00261DB1D440002382
:1002A800C5E900433146BDE8F0878B4209D9002DE6
:1002B80000F0EF800026C5E9000130463146BDE870
:1002C800F087B3FA83F6002E4AD18B4202D38242DA
:1002D80000F2F980841A61EB030301209E46002D89
:1002E800E0D0C5E9004EDDE702B9FFDEB2FA82F2DE
:1002F800002A40F09280A1EB0C014FEA1C471FFA3C
:100308008CFE0126200CB1FBF7F307FB131140EA22
:1003180001410EFB03F0884208D91CEB010103F1EF
:10032800FF3802D2884200F2CB804346091AA4B2B1
:10033800B1FBF7F007FB101144EA01440EFB00FE85
:10034800A64508D91CEB040400F1FF3102D2A645EA
:1003580000F2BB800846A4EB0E0440EA03409CE789
:10036800C6F12007B34022FA07FC4CEA030C20FA36
:1003780007F401FA06F31C43F9404FEA1C4900FA56
:1003880006F3B1FBF9F8200C1FFA8CFE09FB1811D3
:1003980040EA014108FB0EF0884202FA06F20BD946
:1003A8001CEB010108F1FF3A80F08880884240F296
:1003B8008580A8F102086144091AA4B2B1FBF9F0DA
:1003C80009FB101144EA014100FB0EFE8E4508D9D5
:1003D8001CEB010100F1FF346CD28E456AD902385A
:1003E800614440EA0840A0FB0294A1EB0E01A1423F
:1003F800C846A64656D353D05DB1B3EB080261EBAD
:100408000E0101FA07F722FA06F3F1401F43C5E986
:10041800007100263146BDE8F087C2F12003D840BC
:100428000CFA02FC21FA03F3914001434FEA1C47FE
:100438001FFA8CFEB3FBF7F007FB10360B0C43EAF0
:10044800064300FB0EF69E4204FA02F408D91CEBA0
:10045800030300F1FF382FD29E422DD9023863449E
:100468009B1B89B2B3FBF7F607FB163341EA03413E
:1004780006FB0EF38B4208D91CEB010106F1FF388D
:1004880016D28B4214D9023E6144C91A46EA004684
:1004980038E72E46284605E70646E3E61846F8E616
:1004A8004B45A9D2B9EB020864EB0C0E0138A3E75F
:1004B8004646EAE7204694E74046D1E7D0467BE740
:1004C800023B614432E7304609E76444023842E7B8
:1004D800704700BF30B58BB000240594069407948C
:1004E800089409940194224B1A6B42F004021A638F
:1004F8001A6B02F004020192019A02941A6B42F0FC
:1005080080021A631A6B02F080020292029A039424
:100518001A6B42F001021A631A6B02F0010203928D
:10052800039A04941A6B42F002021A631B6B03F0DD
:1005380002030493049B0F4D22462021284600F015
:1005480029FE4FF4005305930B4B0693079405A916
:100558000A4800F049FD20230593012306930794D8
:10056800089405A9284600F03FFD0BB030BD00BF38
:10057800003802400000024000002110000802403C
:1005880072B6FEE708B50A480A4B03604FF4E13338
:10059800436000238360C36003610C22426183616E
:1005A800C36100F0BBF900B908BDFFF7E9FF00BF60
:1005B800280000200044004000B595B030220021FA
:1005C80008A800F017FF00230393049305930693EC
:1005D800079301931E4A116C41F080511164126C0B
:1005E80002F080520192019A02931A4A116841F46A
:1005F80040411160126802F440420292029A0221BC
:10060800089101220B9210220C920E910F931092D6
:100618004FF4A873119304231293139308A800F0BE
:10062800ADF980B90F2303930221049100230593A8
:100638004FF480520692079303A800F0FFFB20B9FD
:1006480015B05DF804FBFFF79BFFFFF799FF00BFAC
:10065800003802400070004008B500F02FFEFFF798
:10066800ABFFFFF737FFFFF78DFF2021034800F0AE
:1006780097FD4FF4FA7000F04DFEF6E700000240D7
:10068800FEE7FEE7FEE7FEE7FEE7704770477047C4
:1006980008B500F02DFE08BD00B583B0002100911B
:1006A8000C4B5A6C42F480425A645A6C02F48042F1
:1006B8000092009A01911A6C42F080521A641B6CE5
:1006C80003F080530193019B072000F073FD03B0F2
:1006D8005DF804FB0038024000B589B0002303939D
:1006E80004930593069307930268154B9A4202D028
:1006F80009B05DF804FB0021019103F5FA331A6C87
:1007080042F400321A641A6C02F400320192019A1F
:1007180002911A6B42F001021A631B6B03F001038A
:100728000293029B0C23039302230493032306934F
:100738000723079303A9034800F056FCD8E700BF36
:10074800004400400000024038B5044602681369BE
:1007580023F44053C1680B43136183680269134350
:1007680042691343C2691A430168CB6823F41643EC
:1007780023F00C031343CB600268536923F44073DE
:1007880081690B435361C369B3F5004F35D00368E2
:10079800604A934200F0918002F58062934200F033
:1007A8008C8000F001FC0021031849411B1841F11D
:1007B8000001C90041EA5371DB00181863684FEA69
:1007C80083024FEA937341F10001FFF701FD524D97
:1007D800A5FB00325109642303FB11031B013233CB
:1007E800A5FB03235B0903F0F00202EB011203F0FF
:1007F8000F03216813448B608AE00368454A9342DB
:100808002FD002F5806293422BD000F0CDFB00235D
:10081800021843EB0301121841F10001C90041EA33
:100828005271D200101841F10001626892185B41C0
:10083800FFF7CEFC384DA5FB00325109642303FBBA
:100848001103DB003233A5FB03235B095A0002F4D2
:10085800F87202EB011203F00703216813448B605E
:1008680056E000F0B1FB0023021843EB0301121815
:1008780041F10001C90041EA5271D200101841F15A
:100888000001626892185B41FFF7A2FC224DA5FBAC
:1008980000325109642303FB1103DB003233A5FB4B
:1008A80003235B095A0002F4F87202EB011203F009
:1008B8000703216813448B602AE000F085FB0021C0
:1008C800031849411B1841F10001C90041EA53715D
:1008D800DB00181863684FEA83024FEA937341F10B
:1008E8000001FFF775FC0C4DA5FB0032510964238C
:1008F80003FB11031B013233A5FB03235B0903F040
:10090800F00202EB011203F00F03216813448B601D
:1009180038BD00BF001001401F85EB5158B310B51A
:10092800044690F839300BB3242384F83930226810
:10093800D36823F40053D3602046FFF705FF2268ED
:10094800136923F4904313612268536923F02A033F
:1009580053612268D36843F40053D3600020E063F6
:10096800202384F8393084F83A3010BD80F83830C4
:10097800FFF7B2FED8E7012070470000002800F01A
:10098800DA8170B582B00446036813F0010F3BD0DA
:100998009F4B9B6803F00C03042B2CD09C4B9B684B
:1009A80003F00C03082B21D06368B3F5803F4FD0C8
:1009B800B3F5A02F52D0964B1A6822F480321A60F1
:1009C8001A6822F480221A606368002B50D000F065
:1009D8009BFC05468E4B1B6813F4003F14D100F0B6
:1009E80093FC401B6428F5D90320ABE1884B5B6876
:1009F80013F4800FD8D0864B1B6813F4003F03D044
:100A08006368002B00F09981236813F0020F54D01B
:100A18007F4B9B6813F00C0F3ED07D4B9B6803F017
:100A28000C03082B33D0E368002B68D0794B0122E4
:100A38001A6000F069FC0546754B1B6813F0020F3D
:100A480054D100F061FC401B0228F5D9032079E15C
:100A58006F4A136843F480331360B5E76C4B1A6828
:100A680042F480221A601A6842F480321A60ABE7B6
:100A780000F04AFC0546664B1B6813F4003FC3D0E0
:100A880000F042FC401B6428F5D903205AE1604B72
:100A98005B6813F4800FC6D15D4B1B6813F0020F1F
:100AA80003D0E368012B40F04A81594A136823F0C8
:100AB800F803216943EAC1031360236813F0080FA0
:100AC80042D063696BB3534B0122C3F8802E00F008
:100AD8001BFC05464E4B5B6F13F0020F34D100F040
:100AE80013FC401B0228F5D903202BE1484A136860
:100AF80023F0F803216943EAC1031360DDE7454B9E
:100B080000221A6000F000FC0546414B1B6813F0F8
:100B1800020FD2D000F0F8FB401B0228F5D90320C1
:100B280010E13C4B0022C3F8802E00F0EDFB054697
:100B3800374B5B6F13F0020F06D000F0E5FB401B4C
:100B48000228F5D90320FDE0236813F0040F77D0BD
:100B58002F4B1B6C13F0805F33D1002301932C4B78
:100B68001A6C42F080521A641B6C03F08053019394
:100B7800019B0125284B1B6813F4807F23D0A368B1
:100B8800012B34D0052B38D0214B1A6F22F00102EB
:100B98001A671A6F22F004021A67A368002B3DD067
:100BA80000F0B2FB06461A4B1B6F13F0020F46D13A
:100BB80000F0AAFB801B41F288339842F3D9032046
:100BC800C0E00025D6E7144A136843F48073136025
:100BD80000F09AFB0646104B1B6813F4807FCED1B9
:100BE80000F092FB801B0228F5D90320AAE0084AEE
:100BF800136F43F001031367CFE7054B1A6F42F0F9
:100C080004021A671A6F42F001021A67C5E700BFAB
:100C180000380240000047420070004000F074FBBA
:100C280006464F4B1B6F13F0020F08D000F06CFB09
:100C3800801B41F288339842F3D9032082E0E5B95A
:100C4800A369002B7DD0464A926802F00C02082A5C
:100C580051D0022B17D0434B00221A6600F054FBE8
:100C680004463F4B1B6813F0007F42D000F04CFB5A
:100C7800001B0228F5D9032064E0394A136C23F0DD
:100C880080531364DCE7374B00221A6600F03CFB04
:100C98000546334B1B6813F0007F06D000F034FB89
:100CA800401B0228F5D903204CE0E369226A13436C
:100CB800626A43EA8213A26A5208013A43EA02438B
:100CC800E26A43EA0263264A5360264B01221A6607
:100CD80000F01AFB0446224B1B6813F0007F06D174
:100CE80000F012FB001B0228F5D903202AE000209F
:100CF80028E0002026E0012B26D0194B5B6803F47E
:100D08008001E269914221D103F03F02216A8A42BF
:100D18001ED1616A47F6C0721A408A421AD103F49A
:100D28004032A16A8A4217D103F07063E26A9342A3
:100D380014D1002006E001207047012002E00120C4
:100D480000E0002002B070BD0120FBE70120F9E7B8
:100D58000120F7E70120F5E70120F3E70120F1E79B
:100D6800003802400000474208B5314B9B6803F049
:100D78000C03042B57D0082B57D12D4B5A6802F07F
:100D88003F025B6813F4800F2AD0294B5968C1F3DE
:100D9800881C4FEA4C11B1EB0C006EEB0E0E4FEABB
:100DA8008E1343EA90638101091A63EB0E03DB009B
:100DB80043EA5173C90011EB0C0C43F100035902CB
:100DC80000234FEA4C2041EADC51FFF701FA184BA7
:100DD8005B68C3F3014301335B00B0FBF3F025E02C
:100DE800134B5968C1F3881C4FEA4C11B1EB0C0046
:100DF8006EEB0E0E4FEA8E1343EA90638101091AD7
:100E080063EB0E03DB0043EA5173C90011EB0C0CD2
:100E180043F10003990200234FEA8C2041EA9C51D8
:100E2800FFF7D6F9D3E7034800E0034808BD00BF41
:100E38000038024000127A000024F400002800F074
:100E48009B8070B50D4604464F4B1B6803F00F039B
:100E58008B4208D2CBB24C4A1370136803F00F03CD
:100E68008B4240F08B80236813F0020F17D013F0E9
:100E7800040F04D0454A936843F4E0539360236811
:100E880013F0080F04D0414A936843F46043936019
:100E98003E4A936823F0F003A1680B4393602368EC
:100EA80013F0010F32D06368012B21D09A1E012A5A
:100EB80025D9364A126812F0020F61D033498A6880
:100EC80022F0030213438B6000F01EFA06462F4BF4
:100ED8009B6803F00C036268B3EB820F16D000F036
:100EE80013FA801B41F288339842F0D9032042E07C
:100EF800264A126812F4003FE0D101203BE0234A61
:100F0800126812F0007FD9D1012034E01E4B1B6813
:100F180003F00F03AB4207D9EAB21B4B1A701B68E8
:100F280003F00F03AB422DD1236813F0040F06D052
:100F3800164A936823F4E053E1680B4393602368EF
:100F480013F0080F07D0114A936823F4604321690E
:100F580043EAC1039360FFF707FF0C4B9B68C3F399
:100F680003130B4AD35CD8400A4B18600A4B186825
:100F780000F07EF9002070BD012070470120FAE7DB
:100F88000120F8E70120F6E7003C02400038024063
:100F9800241400080800002004000020014B1868F1
:100FA800704700BF0800002008B5FFF7F7FF044BA3
:100FB8009B68C3F38223034AD35CD84008BD00BFB3
:100FC800003802403414000808B5FFF7E7FF044B67
:100FD8009B68C3F34233034AD35CD84008BD00BFC3
:100FE800003802403414000800230F2B00F2C88098
:100FF800F0B583B03AE0042200E00022AA40324370
:101008000234604D45F824205F4A14686FEA0C02E8
:1010180024EA0C054E6816F4803F01D04CEA04051A
:10102800594C2560646802EA04054E6816F4003FCE
:1010380001D04CEA0405544C6560A46802EA040532
:101048004E6816F4801F01D04CEA04054E4CA5608A
:10105800E46822404D6815F4001F01D04CEA0402F0
:10106800494CE26001330F2B00F2888001229A403C
:101078000C6804EA020C32EA0404F3D14C68651ED9
:10108800012D03D9112C01D0122C12D185685E00D4
:101098000324B44025EA0405CC68B4402C4384609A
:1010A800456825EA02054C68C4F300129A402A43B1
:1010B8004260C5684FEA430E032404FA0EF4E24383
:1010C80025EA04058C6804FA0EF42C43C4604C68C5
:1010D800022C01D0122C0FD1DD08083550F82570EC
:1010E80003F00704A6000F24B44027EA04070C699C
:1010F800B4403C4340F82540046814404A6802F074
:10110800030202FA0EF2224302604A6812F0805F7C
:10111800A8D0002201921D4A546C44F480445464BF
:10112800526C02F480420192019A9C08A51C154A4F
:1011380052F8256003F0030295000F22AA4026EA20
:101148000206134A90423FF458AF02F5806290427B
:101158000ED002F5806290420CD002F58062904277
:101168000AD002F5806290423FF445AF072245E776
:10117800012243E7022241E703223FE703B0F0BD23
:10118800704700BF00380140003C01400038024071
:10119800000002400AB1816170470904816170470B
:1011A800436931EA030301D0816170470904816111
:1011B80070470000074AD36823F4E0631B041B0C44
:1011C800000200F4E060034343F0BF6343F40033DC
:1011D800D360704700ED00E000B5194BDB68C3F33E
:1011E8000223C3F1070CBCF1040F28BF4FF0040C15
:1011F80003F1040EBEF1060F18D9033B4FF0FF3E72
:101208000EFA0CFC21EA0C0199400EFA03F322EACB
:101218000303194300280BDB0901C9B200F1604040
:1012280000F5614080F800135DF804FB0023E5E752
:1012380000F00F000901C9B2024B1954F4E700BFCE
:1012480000ED00E014ED00E00138B0F1807F0BD232
:101258004FF0E0235861054AF02182F8231000205E
:10126800986107221A6170470120704700ED00E07D
:1012780010B504460E4B18784FF47A73B3FBF0F3AD
:101288000C4A1068B0FBF3F0FFF7DEFF68B90F2CCB
:1012980001D901200AE0002221464FF0FF30FFF774
:1012A8009BFF054B1C60002000E0012010BD00BF23
:1012B80000000020080000200400002008B50B4BA7
:1012C8001A6842F400721A601A6842F480621A605E
:1012D8001A6842F480721A600320FFF76BFF00203F
:1012E800FFF7C6FFFFF7D8F9002008BD003C024011
:1012F800034A1168034B1B780B441360704700BF07
:101308006800002000000020014B1868704700BFEB
:101318006800002038B50446FFF7F6FF0546B4F12B
:10132800FF3F02D0044B1B781C44FFF7EDFF401B26
:10133800A042FAD338BD00BF00000020054BD3F807
:10134800882042F47002C3F888204FF000629A6047
:10135800704700BF00ED00E0DFF834D0002103E063
:101368000C4B5B58435004310B480C4B42189A42C3
:10137800F6D30B4A02E0002342F8043B094B9A4299
:10138800F9D3FFF7DBFF00F011F8FFF765F97047B5
:10139800000002204C140008000000200C0000206F
:1013A8000C0000206C000020FEE7000070B50D4D19
:1013B8000D4C641BA4100026A64209D10B4D0C4C01
:1013C80000F020F8641BA4100026A64205D170BDC9
:1013D80055F8043B98470136EEE755F8043B984723
:1013E8000136F2E7441400084414000844140008C5
:1013F8004814000802440346934200D1704703F89A
:10140800011BF9E7F8B500BFF8BC08BC9E46704759
:0C141800F8B500BFF8BC08BC9E46704749
:101424000000000000000000010203040607080990
:081434000000000001020304A6
:08143C00CCEDFF7F0100000070
:04144400BD010008DE
:0414480099010008FE
:0C144C0001000000100000000024F4006B
:04000005080013617B
:00000001FF
